:020000041000EA
:1000000000B5324B212058609868022188439860DF
:10001000D860186158612E4B002199600221596106
:100020000121F02299502B49196001219960352056
:1000300000F044F80222904214D00621196600F024
:1000400034F8196E01211966002018661A6600F04E
:100050002CF8196E196E196E052000F02FF8012189
:100060000842F9D1002199601B49196000215960AB
:100070001A491B48016001219960EB211966A021F2
:10008000196600F012F800219960164914480160C1
:100090000121996001BC002800D000471248134993
:1000A000086003C880F30888084703B5996A0420EC
:1000B0000142FBD001200142F8D103BD02B5186610
:1000C0001866FFF7F2FF186E186E02BD00000240BE
:1000D000000000180000070000035F00212200005C
:1000E000F4000018222000A00001001008ED00E03C
:1000F00000000000000000000000000074B24E7A12
:1001000000200420F7010010C3010010C5010010F9
:10011000C1010010C1010010C1010010C101001097
:10012000C1010010C1010010C1010010C701001081
:10013000C1010010C1010010C9010010CB01001065
:10014000CD010010CD010010CD010010CD01001037
:10015000CD010010CD010010CD010010CD01001027
:10016000CD010010CD010010CD010010CD01001017
:10017000CD010010CD010010CD010010CD01001007
:10018000CD010010CD010010CD010010CD010010F7
:10019000CD010010CD010010CD010010CD010010E7
:1001A000CD010010CD010010CD010010CD010010D7
:1001B000CD010010CD010010CD010010CD010010C7
:1001C00000BE00BE00BE00BE00BE00BEEFF3058054
:1001D000103800BEF2EB8871ECE1051010E205105A
:1001E0003402001090A31AE700201F49086006C8D7
:1001F00081F3088810471D48006800282FD10DA4FE
:100200000ECC002902D000F012F8F9E71849194A7B
:10021000002000E001C19142FCD1174988471749ED
:1002200088471749884700BEFDE701C901C29A42C5
:10023000FBD3704710E20510C000002050230020BF
:10024000A00406100000042000000420A0040610F2
:10025000001004200010042000000000704709482E
:1002600002F03CFF0047000008ED00E0000000D075
:1002700050230020844200209D1D0010090300101F
:100280005F1D00105756000006005250ABB360537C
:10029000C8B1041006005250861C0302D8B10410E5
:1002A000060052505422A29DE4B1041005005250A1
:1002B000DE65F468A0040610F8B5C0460648074994
:1002C000091A8B10C90FC91810B5491003D0044B77
:1002D000002B00D0984710BD502300205023002051
:1002E00000000000054B10B5002B03D00449054861
:1002F00000E000BFFFF7E2FF10BDC04600000000B5
:10030000543F0020F8A7041010B504F09BF90549EC
:10031000054824F015F923F095FFFA20800000F03D
:1003200056FFF4E7F8A70410D437002010B5830077
:10033000084A944663441A6840246240803414405A
:100340008022520113431C60C000034B9C46604452
:10035000416010BD04C0014000400140034B1B68D8
:1003600002201840431E9841C0B2704700C00640AA
:10037000EFF3108072B6034B1B68002BFBD0BFF36A
:100380005F8F70472C0100D0BFF35F8F024B0022BC
:100390001A6080F3108870472C0100D0F8B5060071
:1003A0000C001500FFF7E4FFE308F718F15C0722E3
:1003B0002240012393400B4205D1DBB20B433B703B
:1003C000FFF7E2FFF8BD2100280001F063FD000007
:1003D000002307E0054A9A189200BFF35F8F0021BF
:1003E000116001331F2BF5D97047C046400000341F
:1003F000054A1078431CDBB21370172B02D9130087
:1004000010221A707047C046F0110020074B9B68FD
:10041000103080001950BFF35F8FBFF35F8F044B24
:100420000021196082F310887047C04600ED00E09B
:10043000240100D010B50388DA0A1C2A05D15B0517
:100440005B1502335B00C01810BD034B034A044820
:10045000B12101F087FCC04600A804101CCC041098
:1004600018A8041010B5091A0B1F0A4A88180A4A5E
:10047000904208D8C90706D45B105B055B0D07489E
:10048000184380B210BD064B064A0748A32101F06D
:1004900069FCC046FC070000FE0F000000E0FFFF03
:1004A00060A8041010CC041018A8041010B5091A84
:1004B00004394A08090B08D14905490D064B0B437D
:1004C0000380064B1343438010BD054B054A064885
:1004D000AB2101F047FCC04600F0FFFF00F8FFFF32
:1004E00090A80410E4CB041018A804100123834042
:1004F000034A10681840431E9841C0B27047C04676
:1005000000E100E0002904D0034B1860034B1860A1
:100510007047034B1860FBE780E200E000E100E079
:1005200080E100E010B5012383401800FFF7EAFFE7
:1005300010BD0000024B9B6810308000C05870470F
:1005400000ED00E070B504000D00EFF3108672B608
:100550000C4B1B68002BFBD0BFF35F8F2000FFF715
:10056000E9FF094B984201D0A84205D13200290089
:100570002000FFF74BFF70BD044B054A054886215C
:1005800001F0F0FB240100D0CD010010A0A8041060
:100590002CCC041018A80410F0B5CE46474680B500
:1005A00083B006000D00EFF3108872B64F4B1B6846
:1005B000002BFBD0BFF35F8F4D4B9A683400103493
:1005C000A300D7584B4B9F4207D0AF4200D18BE0DE
:1005D0000197494BFB1A2F2B09D9424639003000AD
:1005E000FFF714FF03B0C0BCB946B046F0BD300001
:1005F000FFF77CFF814600213000FFF793FFBFF338
:100600005F8FEFF30581002901D08C4211D10123C6
:10061000019C9C430020A368AB4212D00622A25644
:10062000002A0DDB53009B189B00334A2000D4188E
:10063000F1E7324B324A36213248FF3101F092FB6A
:100640002000AB4249D106256557002D2BDB2A4BF4
:100650006A00521992009B189A68A260DA79E271D6
:100660009B795BB2A371002B0FDA2748A080224B45
:100670006A00521992009B18244A117899711570DA
:1006800049463000FFF74EFFA7E768004019800099
:10069000194BC0180430FFF7CDFE0100231D1800D0
:1006A000FFF7E0FEE2E7002912D100280ED0FF2379
:1006B0008371174B838015490B78A3710E4A154B34
:1006C000A41A644163431B0D0B70D9E7094FF2E78D
:1006D0001149201DFFF7EAFED2E7104B084A6A21B4
:1006E0000848FF3101F03EFB024F76E7240100D0BD
:1006F00000ED00E0CD010010F4110020D8A8041096
:10070000FCCB041018A8041001BD00008242002098
:1007100001BDFFFFAAAA00002E1200200CA90410A0
:1007200070B5012202432E4BD31A2F2B28D8EFF39A
:100730000583002B2BD0EFF3108C72B62949096882
:100740000029FBD0BFF35F8F254C274905002D1BE7
:100750006D416943090D4CB2244989689B00C95811
:1007600091421BD00021032932D81D4B4A00521858
:1007700092009B189B795BB2A3421FD00131F2E734
:100780001B4B1C4AC7211C48490001F0EBFA1B4BCC
:10079000184A92211848FF3101F0E4FA134A92688E
:1007A0001749D150174B1A7882711C70BFF35F8FB5
:1007B0000C4B00221A608CF3108870BD084B4A0065
:1007C0005518AD005D19FF26AE710F4AAA80E9E702
:1007D0000E4B084AD1210848490001F0C3FAC0462F
:1007E000F4110020240100D0AAAA000000ED00E0CE
:1007F00014A90410C8CB041018A804103CA90410B4
:10080000CD0100108242002001BDFFFF48A9041065
:100810000022044B02E0044902C30132072AFAD93C
:100820007047C04600E400E080808080024B9C4618
:1008300061448900016070474000003410B5040035
:10084000FFF7D6FD01002000FFF7F0FFFF23237123
:10085000BFF35F8F10BD10B50400FFF7C9FD0100A5
:100860002000FFF7E3FFFF23237100236371BFF331
:100870005F8F10BD084B5B6A994209D8064A926A9D
:10088000824207D2994201D0012002E0002000E01C
:10089000002070470120FCE70040054010B500290A
:1008A0000AD003681B7B8B4206D38068054B9C46AD
:1008B00061440901401810BD034B044A04483C211F
:1008C00001F050FAFFFFFF0FE8A904103CCD04101F
:1008D0000CAA0410F8B504001700FFF7DFFF066844
:1008E000456839002000FFF7D9FF026843680120FE
:1008F000AB4201D802D00020C0B2F8BDB242FBD852
:10090000F9E7000010B5002B02DB0260436010BD68
:10091000024B034A03483F2101F024FA50AA041075
:1009200008CD04106CAA041010B582B0040004981D
:10093000059912184B41002B09DB6846FFF7E2FFCF
:10094000009A019B22606360200002B010BD01226A
:100950005242014BF1E7C046FFFFFF7F10B500296F
:1009600008D0037B8B4205D300684B005B18033B28
:10097000C01810BD024B034A0348682101F0F2F988
:10098000BCAA0410E4CC0410D8AA041010B5437B10
:100990008B4201D1012010BDFFF7E0FF8378002BCF
:1009A00001D10020F7E70120F5E770B50400857B51
:1009B000002D01D1280070BD2900FFF7CFFF43783B
:1009C000A373002B00D1E373002383704370037083
:1009D000F0E70000F8B506000C001500FFF7BEFFB9
:1009E0000700002C0DD0002D11D0AC4215D02900ED
:1009F0003000FFF7B3FF84703B78002B13D13D70BC
:100A0000F8BD0A4B0A4A0B486F2101F0ABF90A4BBB
:100A1000074A0848702101F0A5F9084B044A054827
:100A2000712101F09FF943703D70E9E730AB04108C
:100A3000C0CC0410D8AA04103CAB041048AB04107E
:100A400070B506000D001400002914D0002A14D03F
:100A5000436880689847002806D0220029003000AB
:100A6000FFF7B8FF280007E02A0021003000FFF759
:100A7000B1FF200000E0100070BD0800FCE700009E
:100A800070B504000D1E0CD0FFF768FF00238370C3
:100A900043700370617B2A002000FFF7D1FF607371
:100AA00070BD034B034A0448A52101F05BF9C04621
:100AB00060AB0410D4CC0410D8AA041070B50400A4
:100AC0000D1E0FD0FFF762FF00280BD1E17B00293C
:100AD0000ED1A37B002B03D1E37B002B0DD1A5739B
:100AE000E57370BD084B094A0948F62101F03AF94F
:100AF0002000FFF733FF4570EBE7064B034A04483D
:100B0000FB2101F02FF9C04664AB0410B0CC0410F7
:100B1000D8AA041088AB041010B5002907D00368C8
:100B20001B7B8B4203D3C0680139401810BD034BB7
:100B3000034A0448412101F015F9C046E8A9041010
:100B40009CCC04100CAA041070B505000C00080021
:100B500000F0C8FC0949200000F008FCFFF748FC41
:100B6000074B9C466044800068602C75D0231B06B0
:100B70001B786B75034BA400E55070BD950C0010FD
:100B8000400000346C3F00200A4B1A68EFF31081DC
:100B900072B61368002BFCD0BFF35F8F054B1B6848
:100BA000BFF35F8F00221A6081F3108840BF0020DE
:100BB000002170476442002010B582B0040000F0AC
:100BC00097FB02000B006846FFF79CFE009A019B12
:100BD00022606360200002B010BD70B584B00400D4
:100BE00016001D0002A8FFF7E7FF029A039B00967C
:100BF00001952000FFF798FE200004B070BD0000B2
:100C0000F0B583B0070001921D000AAB1C780BAB56
:100C10001E78002C0BD000682100FFF7B7FE0028DB
:100C200009D0194B194A1A48672101F09BF800684E
:100C3000FFF7BBFE0400002C02D1200003B0F0BD82
:100C400021003800FFF72AFE019B03604560089BE6
:100C50008360099BC36038682100FFF711FFA04241
:100C6000EBD1387D019A2B0000F0C8FB051E01D0A6
:100C7000002E04D00C9B002BDFD01D70DDE7386800
:100C8000210000F075FDF5E79CAB0410F0CC0410DA
:100C90000CAA0410F0B5DE4657464E464546E0B570
:100CA0008FB00B900021794B8200D458894683E0A5
:100CB00029002000FFF7F2FD804602684368921B7E
:100CC000BB41002B09DD43461A685B680B9800F0B6
:100CD00095FB0023984600268AE0002B01D1002ACC
:100CE000F1D10021584600F039FD0700A84215D186
:100CF00043461A685B680892099343469E68DB681E
:100D00009846002E10D029002000FFF705FF037839
:100D100099461B021F432761002069E05C4B5D4A36
:100D20005D488E2101F01EF85C4B5A4A5A489221C8
:100D300001F018F82369002B00D177E0BB4219D1EC
:100D400006980799002342428B4100920193089A2A
:100D5000099B0CA8FFF7E8FD0C9A0D9B002104915C
:100D60000131039102954146019100962000FFF761
:100D700047FF16E04A4B474A4748A12100F0F2FFDF
:100D8000069A079B002B01D1002A52D12068290026
:100D9000FFF794FE29002000FFF7BEFE0378013321
:100DA0000370002323616268BFF35F8F13608AF3CF
:100DB00010880120002861D00CA8FFF7FDFE0C9ED2
:100DC0000D9F00220023089209936268EFF3108AB6
:100DD00072B61368002BFCD0BFF35F8F23689B466D
:100DE0005D7B002D00D063E700239846002600209D
:100DF0006368BFF35F8F00221A608AF31088002EA9
:100E0000D8D04B461F022F4341463800B0470690CA
:100E100007916268EFF3108A72B61368002BFCD05A
:100E2000BFF35F8F079B002B00DA83E7079B002B44
:100E3000A6DD2369002BA9D0BB4219D10CA8FFF76E
:100E4000BBFE0C9A0D9B06980799009001910CA887
:100E5000FFF76AFD0C9A0D9B00210491013103916B
:100E600002954146019100962000FFF7C9FE98E7E0
:100E70000B4B084A0848A42100F074FF0FB0F0BCE7
:100E8000BB46B246A946A046F0BDC0466C3F002016
:100E9000C4AB041020CD04100CAA0410DCAB041069
:100EA000E8AB041010B50C4B5B68002B04D00B486A
:100EB0000A21FFF7BBFC10BD074C094A206823003C
:100EC000102100F0B6FB032000F006FA03212000F9
:100ED000FFF73AFEEBE7C0463C12002064420020D8
:100EE000D508001010B5064B5B68002B01D00448F4
:100EF00010BD044B044A05485E2100F033FFC04694
:100F00003C12002024AC041084CC04100CAA041061
:100F1000F0B5DE4657464E464546E0B58DB0060074
:100F200090461F00169B9A46179B994618AB1B7854
:100F30000793272302AA9446634400221A7021E0F3
:100F400001003000FFF7E8FD00783CE00698002B38
:100F50005CD0079B002B59D04946D04704000D00B8
:100F600003000B4359D0002940DB08A8FFF724FEFB
:100F7000089A099B0094019508A8FFF7D5FC089BE7
:100F80009846099F7268EFF3108B72B61368594246
:100F90004B41D9B20691002BF8D1BFF35F8F2733B5
:100FA00002AA9446634404930023039302934B469E
:100FB00001935346009342463B003000FFF720FE6A
:100FC0000400051EBCD17368BFF35F8F0021196058
:100FD0008BF31088002D17D0272302AA9446634470
:100FE0001B78002BB2D100022043B0E700236242FD
:100FF000AB410092019342463B0008A8FFF794FCE6
:10100000089B9846099FBDE7012040420DB0F0BC07
:10101000BB46B246A946A046F0BD0698F6E7F0B535
:10102000C64600B584B00500884616001F000AAB0E
:101030001C78FFF757FF0294019700962A00434659
:10104000FFF766FF04B080BCB846F0BDF0B5C646F9
:1010500000B505000C1E42D04268EFF3108772B64F
:101060001368002BFCD0BFF35F8FE6B22B68984665
:1010700031001800FFF78AFC00282AD02B69A34210
:1010800013D0240AE4B231002800FFF745FD0378AD
:10109000A34211D000206B68BFF35F8F00221A605B
:1010A00087F3108880BCB846F0BD0E4B0E4A2C2149
:1010B0000E48FF3100F056FE3100404600F058FB6C
:1010C0000028E8D10A4B084A99210848490000F055
:1010D00049FE2B69A342DED100232B61DBE7002010
:1010E000E0E7C04648AC04106CCC04100CAA041015
:1010F0006CAC041010B50400FFF7F4FE2100FFF7FC
:10110000A5FF10BD30B587B004000D00EFF30583D7
:10111000002B20D106225242D31712196B418B4269
:1011200002D803D1824201D90022002304A8FFF78C
:10113000E9FB02A8FFF740FD02980399049A059B7A
:10114000121A8B41002B0BDC08D02000290000F084
:10115000DBF807B030BD144800F09CFE002AF4D044
:10116000124A0498059900230093FFF758FF0028BE
:1011700013DAEAE70E4B1A68EFF3108172B61368C0
:10118000002BFCD0BFF35F8F094B1B68BFF35F8F51
:1011900000221A6081F3108820BF04980599FFF798
:1011A00069FB0028E6D0D0E770AC0410890B001072
:1011B0006442002000B583B002000B006846FFF7D0
:1011C0000CFD00980199FFF79DFF03B000BD10B51D
:1011D000FA2292000023002102F0E0FEFFF7EAFF6E
:1011E00010BD000030B583B005000C00EFF305839F
:1011F000002B0FD10B4A00230093FFF710FF0028AC
:101200000BDD20BFFFF776FF28002100FFF732FB40
:1012100003B030BDFFF72EFBFAE728002100FFF7EF
:1012200029FBF5E7890B001010B5002B02DB0260EB
:10123000436010BD024B034A03483F2100F092FD7A
:1012400050AA04106CCD04106CAA041070B5EFF312
:1012500005801038EFF3108C72B6194B1B68002B09
:10126000FBD0BFF35F8F01221300834015494B630E
:1012700015490B60154909780C00C440224213D06F
:10128000104A546A124A8500AA58944205D3114A5A
:10129000AA580E4C9943217007E00A4A031D9B008F
:1012A00099589950002200E00022BFF35F8F044B51
:1012B000002119608CF31088002A00D0904770BD7F
:1012C000280100D0004005403C70054083420020CA
:1012D00068420020E03D002010B50100024A034BA7
:1012E0001800FFF75BF810BDC0AC0410814200206D
:1012F000044B5B6A034A906A1900536A9942F9D118
:101300007047C04600400540084B5B6A01E0074B50
:101310005B6A8B42FBD301E0044B5B6A8B4203D1D7
:10132000024B9B6A8342F7D37047C046004005409A
:10133000F0B583B004000D00FFF7DAFF06000F00E0
:1013400022002B0092197B41994202D804D190428D
:1013500002D901225242D3176846FFF765FF009871
:101360000199FFF7D1FF03B0F0BD000070B5040094
:101370000E00EFF3108572B61B4B1B68002BFBD0E1
:10138000BFF35F8F002E1CD02000FFF7D3F8174B60
:1013900083420BD019002000FFF7D4F80121200070
:1013A000FFF7C0F80123A340114A1360114BA400BA
:1013B000E650BFF35F8F0C4B00221A6085F3108854
:1013C00070BD0C4BA2000021D1500122A2400A495D
:1013D0000B7893430B7005492000FFF7DDF80021DF
:1013E0002000FFF79FF8E4E7280100D04D1200101D
:1013F00038600540E03D002083420020F0B5DE4625
:1014000000B584B00400150001921E000293FFF79E
:101410006FFF03958E4202D84ED185424CD9EFF32F
:10142000108B72B6274B1B68002BFBD0BFF35F8F6E
:10143000254A17780125A540EBB23B431370234B97
:101440005D63221D92000199D150214AA1000298AA
:1014500088501B6A2B4212D11C4B1B6C2B4208D0AC
:101460000020BFF35F8F174B00221A608BF31088A8
:1014700023E0184B184A1948C52100F073FCFFF708
:1014800037FF8E4214D802D1039B834210D80E4BF3
:101490001B78BB420ED00D4B1D625D631F222240A4
:1014A000012393400E4A1360074B1F700120D8E7B9
:1014B0000020D6E70120D4E7012004B080BCBB4661
:1014C000F0BDC046280100D0834200200040054006
:1014D00068420020E4AC041050CD041008AD0410A4
:1014E00080E200E0EFF3108C72B60B4B1B68002B10
:1014F000FBD0BFF35F8F01238340084A1362084982
:101500000A789A430A70BFF35F8F034B00221A6078
:101510008CF310887047C046280100D00040054079
:101520008342002010B5002908D0037B8B4205D3ED
:1015300000684B005B18033BC01810BD024B034A08
:101540000348682100F00EFCBCAA0410C4CD0410AE
:10155000D8AA0410F8B506000C001500FFF7E2FF4A
:101560000700002C0DD0002D11D0AC4215D0290061
:101570003000FFF7D7FF84703B78002B13D13D700C
:10158000F8BD0A4B0A4A0B486F2100F0EBFB0A4BEF
:10159000074A0848702100F0E5FB084B044A05485B
:1015A000712100F0DFFB43703D70E9E730AB0410C0
:1015B000B0CD0410D8AA04103CAB041048AB041002
:1015C00070B506000D001400002914D0002A14D0B4
:1015D000436880689847002806D022002900300020
:1015E000FFF7B8FF280007E02A0021003000FFF7CE
:1015F000B1FF200000E0100070BD0800FCE770B5EE
:1016000005000023437301338373037BC3730124F9
:1016100006E021002800FFF785FF0134E4B24470A2
:10162000297BA142F5D82800FFF77CFF00234370F7
:1016300070BD10B5017342608360FFF7E0FF10BD1D
:10164000F0B5C64600B505000C1E03D1200080BCD5
:10165000B846F0BDFFF766FF4678002EF6D03100A1
:101660002800FFF75FFF477800239846437021006A
:101670002800FFF757FF434643703200210028003F
:10168000FFF79EFF040039002800FFF7D9FF020092
:1016900021002800FFF794FF0400D7E7F0B5C64605
:1016A00000B504000D001700002927D0FFF73AFF0E
:1016B0004378002B28D18378002B2BD10178200090
:1016C000FFF7BEFF06008046002F0AD0E17B00290D
:1016D00026D1A37B002B03D1E37B002B25D1A5735F
:1016E000E5734346002B26D129002000FFF71AFF9F
:1016F00000234370300080BCB846F0BD114B124A45
:101700001248382100F02EFB114B0F4A0F483A21A6
:1017100000F028FB0F4B0C4A0C483B2100F022FB49
:101720002000FFF7FFFE4570D3E70B4B064A074842
:10173000422100F017FB31002000FFF7F3FE0023E9
:101740008370D1E754AD04109CCD04105CAD04103F
:10175000A0AD0410C8AD041088AB041070B504002F
:101760000A00457B2900FFF799FF6073280070BDD0
:1017700070B506000C1E40D0437B8B4207D0FFF7AC
:10178000D1FE05008178002906D1002036E0012134
:10179000FFF7E4FF012031E03000FFF7C3FE0178DE
:1017A000A1420DD03000FFF7BDFE4178A1420AD022
:1017B0000029F7D1124B134A13486B3100F0D2FACB
:1017C0006B78037001E06B7843700023AB706B7033
:1017D000012221003000FFF761FF0200717B81428E
:1017E00005D03000FFF7ECFE7073012006E0074BD8
:1017F000044A0548712100F0B5FA002070BDC046CA
:1018000048A9041084CD04105CAD0410ECAD0410A4
:1018100070B5046BE30701D4200070BD02003032C4
:10182000C0239B0113430A4A1A60456A836AAD01CB
:10183000ED18AD02062000F0BDF9064901F0A2FC4A
:101840000100280001F09EFC0021FFF771FDE3E795
:10185000010300004E0E000070B504000E001500DC
:10186000FFF7D6FF22002C32E36A5E40354080232A
:101870005B0113431D60206370BD000070B505005F
:101880000C00062000F096F9C000210001F07AFC5F
:10189000C60908D00E4B9E4216D87F230340013361
:1018A00034005E0800E001246C62AE620022002178
:1018B0002800FFF7D1FF062000F07CF98000A1018D
:1018C000891901F05FFC70BD0026024CECE7C046B0
:1018D000FEFF0000FFFF000010B505394901013A85
:1018E000D2001143002B09D002220A43012B07D05A
:1018F000002111436E22FFF7AFFF10BD0022F4E775
:101900000421F6E7002909D00A22064B9C466044D0
:1019100043425841044B4000C2527047802252005B
:10192000F3E7C0460080FCBF7842002070B5050098
:101930000C00062000F03EF9061E27D0164B9D42F3
:1019400026D08022D203154B1A60154B1A60154B16
:101950009B6811009943FAD100212800FFF7D2FFBC
:1019600021002800FFF78AFF06000023012208213A
:101970002800FFF7B1FF2A002C3280239B0113437C
:1019800010221A60084B2B630323AB64300070BD38
:1019900080221204D7E7C0460080034000E00040E8
:1019A00000F0004000C0004001030000F8B5DE4632
:1019B00057464E464546E0B506000F0015000A9A08
:1019C000934250D31A0E92461B0298460A9A00235D
:1019D0004046514601F014FC81467400A419A4004D
:1019E0002F4B9C4664446368834200D26060331F7F
:1019F000DBB29B46012B3CD9C0239B0123438022B1
:101A000012011A60274BB200D158002907D058693B
:101A100001F0B8FB013043001B18033BFDD26D0100
:101A200023685D40E0222A4080235B0123431A6043
:101A30005A46012A28D980239B0123438022120180
:101A40001A604B4663604A4600234046514601F007
:101A5000D7FB144BB60098510120F0BCBB46B246F0
:101A6000A946A046F8BD104B104A1148332100F09A
:101A700079F9012FC0D1C0239B01234303221A60AF
:101A8000A368DB07FCD5CAE72168794003220A4036
:101A90001A60A3680125BD401D42FAD0CBE7C046BD
:101AA00000800040F83D00200CAE0410D0CD0410A2
:101AB00020AE041030B583B00C2000F011F9FEF711
:101AC0004DFC00280DD0002304E02E4A99002E483A
:101AD00088500133092BF8D92A4B2C4A5A6203B09B
:101AE00030BD2B4B00229A6700F002F9294B0122EE
:101AF0001A60274B5B6C012BFBD1274B03221A602A
:101B0000234B9B6B012BFBD1013300930433234AFE
:101B10000121234800F054F805230093214A0121B4
:101B2000214800F04DF8214B0093002202210420AF
:101B3000FFF73CFF1E4D00952B00002201210520E0
:101B4000FFF734FF104C00942300002200210720EF
:101B5000FFF72CFF00942300002200210820FFF74C
:101B600025FF0A4B00932300002200210920FFF7E4
:101B70001DFF00952B00002200210620FFF716FF15
:101B8000ADE7C046F83D0020006CDC021BB700004A
:101B9000008000403CB0004030B00040002F685949
:101BA00000800240008C864700C00240001BB70046
:101BB00040597307014B8000C0587047F83D002022
:101BC000F0B5C64600B504000E0017001D003748EA
:101BD00001F0D8FA8046364BFA18364B9A4239D87B
:101BE0000100380001F0CEFA0200103A98235B00A1
:101BF0009A4235D86B1E062B38D8069B013B062B24
:101C000034D83F09474537D32D04069B1B031D439A
:101C10002368002B36DB284B9C4244D080235B0199
:101C2000264A1360264A1360264A92681900914397
:101C3000FAD12660A060221DC0239B0113432122FC
:101C40001A602268002AFCDAE56008221A6080BC6B
:101C5000B846F0BD1C4B1D4A1D48112100F082F80A
:101C60001C4B1A4A1A48192100F07CF81A4B174AE3
:101C700017481C2100F076F8184B144A1448232109
:101C800000F070F822683F231340B342C3D1A36829
:101C90001B051B0D8342BED1E368EE22D202134026
:101CA000AB42B8D1D3E780239B01B9E7001BB70053
:101CB00080E84BD380F8A93200C0024000E0004029
:101CC00000F0004000C0004070AE0410E0CD0410F1
:101CD000D0AE041018AF041034AF041080AF04105D
:101CE00080239B000343014AD36270470080054074
:101CF000064BAA2212011A602F22DA60044B054A11
:101D00001A60024B5B68002BFBDA70470040024010
:101D10000060024000B0FA0000BEFDE703000A4A7E
:101D20001268002A08D0084A1068C318074A9A4265
:101D300006D3054A13607047034A05491160F2E76C
:101D400001204042F7E7C0466C3E0020000004201E
:101D5000844200200020704701204042704710B5A7
:101D6000FFF7DAFF30B583B00D001900002A0BD061
:101D7000074B084C019200932B000200200002F058
:101D800055FC0120FFF7C8FF034B1A00F1E7C046DE
:101D90009CAF0410ACAF0410B4B4041070B52B4B5E
:101DA0002B4A1A602B4B2C4A1A602C4B9A682A4BF0
:101DB0009343FAD12A4C01E008CC9847294B9C4226
:101DC000FAD3FFF777FE234B274A1A60234B9B6811
:101DD000DB43DB01FAD1254B40229A675A671A6729
:101DE000DA66234C09E0234B234A24488721FFF776
:101DF000B9FF2000FEF722FD0834214B9C4209D296
:101E00002368002BF5D0012BEDD12000FEF723FD38
:101E10000834F2E71B4DA9681B4CC022200002F0D9
:101E2000E9F9AC60EFF30583002B00D000BEFEF7AC
:101E3000CFFAFEF7EDFCFFF735F8144C01E008CCC3
:101E40009847134B9C42FAD370BDC04600E0004057
:101E5000BFCDFBFE00F00040FE7F3C0000C0004014
:101E60001823002028230020FFFFFF0100F001407D
:101E700010230020DCAF0410ECCD0410FCAF0410E4
:101E80001823002000ED00E000000020282300209F
:101E9000502300200FB400B583B0084802F096FB31
:101EA000049B002B07D005A90191180002F09EFBAE
:101EB000034802F08BFB0120FFF72EFF48B004100F
:101EC00018B604109A4200D288547047704710B573
:101ED000002802D00B684968984710BD0100002017
:101EE00007E083001B185B00501C08601078C018C6
:101EF00030380A681378303BDBB2092BF1D97047D0
:101F0000F0B5DE4657464E464546E0B583B09346AB
:101F10001F000C9B9A460D9C0E9B99460F9B9B079E
:101F200003D0B8460F00060022E00192A34688467F
:101F30004E46B9460700B44207D2551C4B464146AF
:101F40002020B84701342A00F5E73D004F465C46A3
:101F5000019B9B46B1464646B84637002E0007E037
:101F6000013C551C5346185D43463900B0472A00D2
:101F7000002CF5D135003E0047460F9B9B0707D448
:101F8000100003B0F0BCBB46B246A946A046F0BD67
:101F9000B0464E46B9462F005D46531BB342EFD2C2
:101FA000541C4B4641462020B8472200F5E7F0B5C7
:101FB000CE46474680B585B0944698460C9D0D9C0C
:101FC0000EAB1B789946109A119B129EB7071CD432
:101FD000002B0CD0F7070AD54F46002F02D10C3743
:101FE000374204D0013B02E030272F5501349442A0
:101FF00001D21F2CF8D9F70707D59C4205D21F2C18
:1020000003D830272F550134F5E7F70612D57705A9
:1020100005D4002C03D0944221D09C421FD00F9AAB
:10202000102A32D00F9A022A37D01F2C0AD8302219
:102030002A5501341F2C05D84A46002A33D02D22B8
:102040002A55013403960293019400954346624653
:10205000FFF756FF05B0C0BCB946B046F0BD621EE2
:10206000012C10D00F9F102F0BD014000F9A102AA4
:10207000D8D1B206D6D51F2CD4D858222A5501342F
:10208000D3E7023CCBE71400C9E7B206EED41F2C1D
:10209000ECD878222A550134C7E71F2CD2D86032F9
:1020A0002A550134C1E7720703D52B222A55013482
:1020B000C8E73207C6D520222A550134C2E7F0B559
:1020C000DE4657464E464546E0B593B081468A46C1
:1020D000089209931CAB10CB1B789B461E9D219B3D
:1020E0009846002C03D1102342469A439046802301
:1020F000DB0046461E4042461A4212D0002C22D037
:1021000000260EE03033D9B2771C0AAB995529006E
:10211000200001F037F8AC4216D31F2F14D83E0030
:1021200004002900200001F02DF8CBB2092BE9D9D9
:102130004246920605D54121C918C9B20A39C9B229
:10214000E2E76121F8E7270043460693209B0593C9
:102150001F9B049303955B46029301970AAB009380
:10216000099B089A51464846FFF721FF13B0F0BC7F
:10217000BB46B246A946A046F0BDF0B5DE4657467E
:102180004E464546E0B597B00A900B910C929A46A0
:10219000209B9946219F22AA13789B46249B099352
:1021A000259C289B98464A463A4302D110329343D5
:1021B00098468022D20045461540434613420AD035
:1021C0004A463A4341D000252E0053460D934D46D2
:1021D000099B9A461BE02E0053460D934D46099BE2
:1021E0009A4614E03033DAB2731C99460EAB9A5516
:1021F000524623002800390001F002F8BC4226D8DC
:1022000019D04B461F2B1CD84E4605000F005246D6
:1022100023002800390000F0F3FFD3B2092BE1D9E5
:102220004246920605D54122D218D2B20A3AD2B21B
:10223000DAE76122F8E7AA45E3D94E460D9B9A46B4
:1022400008E04E460D9B9A4604E0002602E04E460A
:102250000D9B9A4643460693279B0593269B049322
:10226000099B03935B46029301960EAB0093534682
:102270000C9A0B990A98FFF79AFE17B0F0BCBB4670
:10228000B246A946A046F0BDF0B5DE4657464E46DA
:102290004546E0B591B0804689460C929A461A9C14
:1022A0001B9D22002B002000290001F03CFA002891
:1022B00000D0ECE001225242D44B2000290001F072
:1022C0002DFA002800D0E2E001225242D04B20003B
:1022D000290001F00DFA002800D0D8E000220023E8
:1022E0002000290001F004FA002800D0E4E0069460
:1022F00007958023DB001E9A1A400D921E9A1A42FF
:1023000001D106231C930698079902000B0008923E
:10231000099303000A00024300D1D9E0080D4005EB
:10232000400DBC4EB44660440A03120B1E00BA4B6B
:1023300013431F0001F00AFAB84AB94B01F08DF9B6
:10234000B84AB94B01F062F9089009910022B74BE5
:102350003000390001F051F9B54AB64B01F07DF972
:1023600002000B000898099901F050F901F006FAF3
:10237000834601F0EBF906000F00AF4AAF4B01F0C6
:102380006CF90022AE4B01F041F901F0F7F9089029
:10239000AC4AAD4B3000390001F05FF906000F0088
:1023A000089801F0D3F9A94AA94B01F056F90200A7
:1023B0000B003000390001F020F906000F00020088
:1023C0000B0001F04AF90A900B91089BA14A944630
:1023D000634400210022089109921B050993002300
:1023E000089332003B003000390001F00FF90E90E5
:1023F0000F9132003B0000208021C90501F0FDF85B
:1024000006000F000022944B0A980B9901F007F97F
:102410000022924B01F0FAF802000B000A980B9987
:1024200001F0FDF800228E4B01F0F0F802000B00E5
:102430000A980B9901F0F3F802000B003000390004
:1024400001F0E4F802000B000E980F9901F0E7F894
:102450000022714B01F0DAF8089A099B01F0FDF8AF
:1024600006000F0008960997069A079B01F056F997
:1024700000282FD001235B429C46E3440022774B87
:102480003000390001F0CBF80890099122E01E9B42
:1024900004931D9B03931C9B029300940195534648
:1024A0000C9A4946404600F0FFF811B0F0BCBB461C
:1024B000B246A946A046F0BD00210022069107922F
:1024C000069480231B069C46AC446346079310E7A2
:1024D00000239B465B466333C62B20D804261E9BF5
:1024E0001B0528D5089A099B190011430FD05D4A96
:1024F0005D4B0698079901F009F900287AD000226F
:102500005A4B0698079901F0F3F8002872D01C9BEB
:102510005B4506DD5A469B1A013B1C9303E00526EA
:10252000DDE700231C938023DB001E9A1A431E92D2
:10253000002600239B461D9B9E4265D29F1B0223C3
:102540001E9A1A400A921E9A134202D0002E00D000
:1025500000275B46002B07D0089A099B069807992D
:1025600001F05DF806900791002200232000290069
:1025700001F0BEF8002800D07CE03D4B1E9A1340CD
:10258000049303971C9B0293069B079C0093019462
:1025900053460C9A4946404600F086F8002E00D17A
:1025A00083E71E9B9B0671D54525441C53460200BC
:1025B00049462800C0475A46D317D2185A40052327
:1025C0000593013E0496002303930A3302935B466E
:1025D000DB0F019300925346220049464046FFF725
:1025E0006EFD0A9B002B00D15FE7020047460C9E60
:1025F0001D9D53E01C9B002B9DD00D9B002B9AD062
:102600001C9B013B1C9396E7002798E7FFFFEF7F99
:10261000FFFFEFFF01FCFFFF0000F03FFB799F5041
:102620001344D33FB3C8608B288AC63F0000F83FED
:1026300061436F63A787D23F71A379094F930A4023
:102640000000E03F1655B5BBB16B0240EF39FAFE12
:10265000422EE63FFF03000000002C400000244013
:10266000000018402D431CEBE2361A3F80842E41B7
:10267000FFF7FFFF069C079D22002900802000062F
:10268000844661440B000692079376E765258CE744
:10269000541C534649462020B8472200931BAB42A6
:1026A000F6D3100001E7C046F0B5DE4657464E4669
:1026B0004546E0B595B00690079193469946209F10
:1026C0001E9A1F9B1000190001F02DF8002831D12F
:1026D00001225242BF4B1E981F9901F009F80028B1
:1026E00037D101225242BC4B1E981F9901F016F8B7
:1026F00000283DD10022B94B1E981F9901F00EF819
:10270000002850D10022B64B1E981F9900F0F0FF10
:10271000002848D1002200231E981F9900F0E8FFEE
:10272000002850D100239846229B5B0500D4B6E0D8
:10273000002458E0229B0393219B029303230193DF
:10274000A84B00934B465A4607990698FFF7D8FBCB
:102750000EE1229B0393219B029304230193A24B3E
:1027600000934B465A4607990698FFF7C9FBFFE0CE
:102770000423229A1A4022990B4210D09B4B002A24
:102780000FD0042222990391219902910192009382
:102790004B465A4607990698FFF7B2FBE8E0944B80
:1027A000EDE70322EEE7229B0493219B039302971C
:1027B0001E9B1F9C009301944B465A46079906980E
:1027C000FFF762FDD4E01E9A1F9B0020002100F05D
:1027D00014FF1E901F9101239846A5E70CAB3022F1
:1027E0001A55013F01341F2C01D8092FF6D81E9825
:1027F0001F9900F0C3FF050000F0A8FF02000B00C6
:102800001E981F9900F0F9FE7A4BFA009B181A687F
:102810005B680A920B9300F020FF0890099100F08A
:10282000D1FF060000F08EFF02000B000898099906
:1028300000F0E3FE0890099100226F4B00F06EFF5C
:1028400000282ED00136300000F07CFF02000B0083
:102850000A980B9900F052FF002801D0013500269C
:10286000002F2CD1280000F071FF02000B001E98F1
:102870001F9900F0C2FE06000F0000225E4B00F020
:1028800037FF002846D100225B4B3000390000F0B2
:1028900045FF00283ED1EB073CD501353AE006273D
:1028A00046E70022544B0898099900F021FF0028C0
:1028B000D6D1002E01D0F307D2D50136D0E7AA46F3
:1028C0001F2C11D8013F0A21300000F05BFC651C71
:1028D00030310CAB19550A21300000F053FC092EA1
:1028E0000ED906002C00EBE755461F2C0CD87B1E9A
:1028F000002F09D00CAA302111551F000134F4E734
:102900002B0055461C00F0E71F2C03D80CAB2E22E1
:102910001A5501341F2C10D80A21280000F00AFC97
:10292000661C30310CAB19550A21280000F002FC5E
:10293000051E01D03400EDE734000323229A134032
:10294000012B1CD01F2C06D84346002B32D00CABD9
:102950002D221A550134229B0393219B029301944B
:102960000CAB00934B465A4607990698FFF7C8FAF6
:1029700015B0F0BCBB46B246A946A046F0BD219BAF
:10298000002B13D04346002B02D10C3313420FD03F
:10299000219B013B2193190003E00CAB30221A5517
:1029A00001348C42CED21F2CF7D9CBE72199F8E71E
:1029B0002199F6E7229B5B0704D50CAB2B221A5515
:1029C0000134C8E7229B1B07C5D50CAB20221A5542
:1029D0000134C0E7FFFFEFFFFFFFEF7F65CDCD4183
:1029E00065CDCDC164B0041068B0041058B00410B7
:1029F00060B0041098CF04100000E03FF0B5DE4650
:102A000057464E464546E0B593B0824688469346C3
:102A10001193002900D10DE300255646119B18782B
:102A2000002800D109E3252809D06C1C5B462A0048
:102A30004146B047119B013311932500EEE7013366
:102A40001193002720E001231F430132119201243A
:102A500018E002231F4301321192012412E00423E3
:102A60001F430132119201240CE008231F4301325D
:102A70001192012406E010231F4301321192012418
:102A800000E00024002C09D0119A1378203BD9B221
:102A90001029F6D88B00C849CB589F46119B1A784D
:102AA0001300303BDBB2092B10D92A2A13D00B9428
:102AB000119B1A782E2A1ED0119A1378683BD9B22E
:102AC000122959D88B00BD49CB589F4611A8FFF752
:102AD00005FA0B90ECE71C9B1A1D1C921B68002B3F
:102AE00004DB0B93119B01331193E1E7022217439F
:102AF0005B420B93F6E78022D20017435A1C1192D7
:102B00005A781300303BDBB2092B0BD92A2AD3D1D8
:102B10001C9B1A1D1C921C68002C08DB119B0133A6
:102B20001193C9E711A8FFF7D9F90400C4E70024FD
:102B3000F4E780235B003B43511C119151786C29D1
:102B400001D01F0018E0C0239B001F4302321192E6
:102B500012E080233B43511C11915178682901D028
:102B60001F0009E0C0231F430232119204E08023BA
:102B70005B001F4301321192119B1878672818D807
:102B8000252800D24CE20300253BDAB2422A00D9C4
:102B900046E293008A4AD3589F4680239B001F43F6
:102BA00001321192E8E780235B001F43013211924A
:102BB000E2E7782800D933E2692800D230E2020047
:102BC000693AD2B2012393407E4A134211D11A06C8
:102BD00000D500E25B0500D422E21C9B1A1D1C926A
:102BE0001B689A46002C00D0B2E1012252425346A3
:102BF0008EE16F280ED006D858283DD0622804D127
:102C000002239C4608E0782839D010239F43063BD6
:102C10009C4601E008239C46582833D0692803D0FD
:102C2000642801D00C2297437A0501D501229743ED
:102C300069282AD0642828D0BA0500D59FE0FA0573
:102C400000D5C1E07A0600D4D3E01C9A111D1C9176
:102C50001168FF220A4005970B9B04930394634677
:102C600002930023019300925B462A004146300004
:102C7000FFF725FA050027E010239C46CCE7102338
:102C80009C46C9E720221743C8E7BA0520D4FA05B5
:102C900050D47A0666D51C9A111D1C911168FF222A
:102CA0000A40D0171118414005970B9B04930394D9
:102CB00063460293D20F019200915B462A0041467F
:102CC0003000FFF7FCF90500119B01331193A5E6D5
:102CD0001C9A073207218A43110008311C911168A0
:102CE00053689946DB170C930D930C9A0D9B1000BB
:102CF00048400E904A4653400F930E980F990C9AF5
:102D00000D9B801A99410E900F9108970B9B07938A
:102D1000069463460493002305934B46DA0F029210
:102D2000009001915B462A0041463000FFF725FAEA
:102D30000500C9E71C9A111D1C911268D0171118C3
:102D4000414005970B9B0493039463460293D20F73
:102D5000019200915B462A0041463000FFF7AFF92F
:102D60000500B1E73A0605D51C9A111D1C910023F8
:102D7000D25E96E71C9A111D1C91126891E71C9A6D
:102D8000073207218A43110008311C9108970B9BD9
:102D900007930694634604930023059302935368B4
:102DA0001268009201935B462A0041463000FFF70B
:102DB000E4F9050088E7C046FCCD041040CE0410BD
:102DC0008CCE0410419000001C9A111D1C91059797
:102DD0000B9B0493039463460293002301931368AF
:102DE00000935B462A0041463000FFF768F9050072
:102DF0006AE73A0606D51C9A111D1C911268120446
:102E0000120C28E71C9A111D1C91126823E7462812
:102E100019D01C9B0733072293431A0008321C92D7
:102E200004970B9A039202941A685B6800920193CC
:102E30005B462A0041463000FFF736FC0500119B37
:102E400001331193EAE520231F43E2E7672801D00D
:102E5000472802D180231B011F43452801D0472862
:102E600001D120231F431C9B0733072293431A00E1
:102E700008321C9204970B9A039202941A685B68BA
:102E8000009201935B462A0041463000FFF7FCF9AF
:102E90000500119B01331193C0E502231A003A404B
:102EA00091463B421DD001241C9B1A1D1C926F1C95
:102EB00018785B462A004146B0474B46002B14D198
:102EC000119B013311933D00A8E5571C5B46414619
:102ED0002020B04723003A005C1C9D42F5D8150025
:102EE000E2E701232A000B9DF6E73A00B1460B9E6C
:102EF00006E0571C5B4641462020C8472C003A009C
:102F0000651CA642F5D817004E46D9E701330A00E2
:102F10001978002902D0511E002AF7D152469B1A77
:102F20008022D200390011408946174202D0A342C4
:102F300000D9230002221100394010913A4209D0F1
:102F40002A00250057469A4633004E46994621E00E
:102F500022004CE62A004546A04606E0541C5B468B
:102F600029002020B0473B0022005F1C0B999942AA
:102F7000F4D84446A8463B00250057469A463300FD
:102F80004E46994606E01D000137541C5B464146FB
:102F9000C84722003878002804D0002EF4D06B1ED9
:102FA000002DF0D1150053464E46109A002A03D149
:102FB000119B0133119331E50B9F2A0006E0551C4C
:102FC0005B4641462020B04723002A005C1C9F42FC
:102FD000F5D81500ECE721233B431C9A111D1C91E9
:102FE0001268059308230493039408330293002383
:102FF000019300925B462A0041463000FFF75FF8DC
:103000000500119B0133119308E56C1C5B462A00F7
:1030100041462520B047119B013311932500FDE463
:103020006C1C5B462A004146B047119B013311934B
:103030002500F3E40A4B9A46EEE4B2465D450DD313
:103040005B465A1E5B4641460020D047280013B01D
:10305000F0BCBB46B246A946A046F0BD2A00F1E747
:10306000CD1E00100EB430B584B0010007AC08CC02
:1030700003940122054D009452422800FFF7BEFC44
:1030800004B030BC08BC03B01847C046C51E0010D1
:1030900010B582B0044C009313000A000100200018
:1030A000FFF7ACFC02B010BDC51E001000B585B026
:1030B0000290039101210448009313004A4202A99F
:1030C000FFF79CFC05B000BDCF1E00100148042195
:1030D000014B184770120020FD30001010B50100A0
:1030E00018231B8814221088984710BD10B50100C2
:1030F00018231B8816221088984710BDF0B5C646C5
:1031000000B507000E0000250123984600E00135B8
:10311000B5420AD2AC003C192068FFF7DFFF2060FF
:103120000028F4D100239846F1E7404680BCB84619
:10313000F0BD0000124A936F9B0815D29066D166CD
:10314000002905D0FFE7FFE7FFE7516F106F7047D9
:1031500004B580210906C2175140002800D0C84399
:1031600047F002FB002104BDF0B5146E556E576F99
:10317000166FFFF7E3FF1466556657671667F0BDD5
:10318000000000D0114A936F9B0813D2106651665D
:10319000002905D0FFE7FFE7FFE7516F106F704789
:1031A00004B5002801D00020C04347F0DDFA00211B
:1031B00004BDC046F0B5146E556E576F166FFFF71D
:1031C000E5FF1466556657671667F0BD000000D02E
:1031D00094464A4A926F9208624601D228E0C0465D
:1031E000F0B5464E346E756E776F366F00F020F88E
:1031F0009446424A14665566576716676246F0BDA4
:1032000094463E4A926F9208624601D254E0C0460C
:10321000F0B53A4E346E756E776F366F00F04CF83D
:103220009446364A14665566576716676246F0BD7F
:10323000002B24DB11D000293EDA00B5C9434042FF
:1032400000D1013100F038F8C943404200D10131CA
:10325000DB43524200D1013300BD002AEBD10028EC
:1032600001D1002905D00020C90FC90701D1C043F1
:10327000410800B547F050FA0022002300BD00B518
:1032800000290ADBDB43524200D1013300F014F87D
:10329000C943404200D1013100BDC943404200D181
:1032A0000131DB43524200D1013300F005F8DB432A
:1032B000524200D1013300BD002923D1002B18D187
:1032C000002A0CD0BC460D4F38667A6600210023D8
:1032D000FFE7FFE7FFE77A6F386F67467047002820
:1032E00001D00748010000B547F016FA002200237C
:1032F00000BD02000B00002000217047000000D03C
:10330000FFFFFFFF002B00D0BFE0130C28D1002AE5
:10331000E7D080B4114F39667A66FFE7FFE730B433
:10332000040C7B6F396F1B0423433B667A66FFE70F
:10333000FFE7FFE7C04684B27B6F3D6F1B0423436A
:103340003B667A66FFE7FFE7C04600232C042D0C9E
:103350007A6F386F00196941B0BC7047000000D027
:10336000F0B594460025140E01D112020835140F51
:1033700001D112010435940F01D192000235D40F0E
:1033800001D152000135D40B0134254F7C66254C08
:103390003C660E0C93B2FFE7FFE7FFE73C6F664326
:1033A000360C7703BE467343DF0B5B04C01AB9418A
:1033B000130C7343DB18C91ACE086643360CB644A7
:1033C00093B273431F0F1B01C01AB941130C73430F
:1033D0001F0B1B05C01AB941860D8F023E43664381
:1033E000360C092D24DB520A7243801A7703460AF1
:1033F0006643360C16235B1BDE40DF40BF19644674
:103400006643821B7046043506330100D940A8404C
:10341000C01900D30131A24206D20023F0BD000042
:10342000000000D0FFFFFFFF121B0130F3D3F1E7D4
:1034300009277F1BFE406446A2B27243801A00D265
:103440000139220C7243130C1204821A99410B00A9
:103450007046043513370100F940A840801900D3A5
:103460000131002B02D1A2420AD2F0BD013000D3BB
:103470000131121BFAD2013BF8D1A24200D2F0BDB9
:10348000013000D30131121BF7E7F0B51C0C00D05E
:1034900080E00CB400251C0A04D11B02160E334335
:1034A000120208351C0B04D11B01160F3343120105
:1034B00004359C0B04D19B00960F334392000235D8
:1034C000DC0B02D192185B4101351C009718644156
:1034D0000134464F7C66464C3C660E0CFFE7FFE726
:1034E000FFE7C0463C6F6643360C7703BE4697B293
:1034F0007743C01B00D20139C01B00D201399FB2F3
:103500007743C91BC91B170C77437E04FF0B801B35
:10351000B941CE086643360C0C2D33DBB644120B92
:103520001F053A431B0B97B27743C01B00D20139EA
:103530009FB27743C91B170C77433E043F0C801B97
:10354000B941860D8F023E43664329277F1BFE400B
:103550000C3D7746AF40BF1930BCA2B2ABB272434C
:103560007343801A9941220C7243130C1204801A7F
:10357000994102000B000137001BA941F9D2781EC6
:103580000021F0BD0C277F1BFE4077467F0BAF402C
:10359000FF19E0E700245D1C07D0144F7D663966F3
:1035A000FFE7FFE7FFE7FFE73C6F95B29EB2654399
:1035B0006643401BB141150C1E0C6543664336043F
:1035C0002F0C3E432D04401BB141994204D202000E
:1035D0000B0020000021F0BD01D19042F7D3801AEA
:1035E000994101349942F2D3F6E70000000000D07F
:1035F000FFFFFFFF48404140484018B41B4B5B6849
:10360000FC46019308BD04DF6B39001018B4174B5A
:103610001B68FC46019308BD00DF75390010944615
:10362000134A926F920809D2624618B40F4BDB68B6
:10363000FC46019308BD0CDF2D3C00100C4AF0B590
:10364000146E556E576F166F6246FFF7EEFF084A0D
:103650001466556657671667F0BD18B4034B9B6830
:10366000FC46019308BD08DFD13A001060400020FD
:10367000000000D0FFB550404240504059404B4000
:10368000594000E0FFB5154F4C00640D03D0BC421B
:1036900004D10C0314D80020090D09055C00640D49
:1036A00003D0BC4204D11C030AD800221B0D1B0509
:1036B00001264B4009D44B4003D58B4200D18242B6
:1036C000FFBD9942FCD19042FFBD0B43DB18034381
:1036D0001343F5D0C9434918FFBD0000FF070000A0
:1036E00000B5FFF7CFFF01D0002000BD012000BDD5
:1036F00000B5FFF7C7FF804100BDC04600B5FFF72A
:10370000C1FF01D9002000BD012000BD00B5FFF7B9
:10371000B1FF01D9002000BD012000BD00B5FFF7B9
:10372000A9FF804100BD012040054A00121804D8BD
:103730005A00121801D8002070470120704700205D
:10374000704700000021002805D17047C11748408C
:10375000401AFAD0C90713B5064B1B6898470CBC32
:10376000441CA2401005120B0349091B090519430B
:10377000114310BD604100201F04000010B54C0033
:10378000620D8023D218DB00D21A5B057E2A10DD81
:103790009E3A13DACC170903490819435242D14023
:1037A000640001341532202A05DAD0400843604312
:1037B00010BD002010BD0846604310BDC80FC018E2
:1037C000013810BD18B4044B5B6AFC46019308BD78
:1037D00024DFDD3D001000006040002018B4044BE1
:1037E000DB6DFC46019308BD5CDFE93E0010000084
:1037F00060400020C94211D300B5490049080022A9
:1038000000F018F8002904D4002240428A411146F1
:1038100000BD80210906002000BD000018B4044B43
:10382000DB6EFC46019308BD6CDFEB3D0010000031
:103830006040002018B4044B9B6FFC46019308BD08
:1038400078DF073E001000006040002018B4044BF1
:10385000DB6FFC46019308BD7CDF753E0010000065
:103860006040002070B513231C78012C12D0012C6D
:1038700012DC214B214A93642148FFF72FFC214B96
:10388000186070BD1C491D4A9800815001331F2BE0
:10389000F8D9ECE70023FAE71B48FFF727FC0500FF
:1038A0001A48FFF723FC023803789B007F2B09DDC1
:1038B00012488022290000F09DFC022C08D0022C26
:1038C000DADCD6E7124B134A13483221FEF74AFAE4
:1038D000124B1A88B5231B029A4209D1104B1A8841
:1038E000104B9A4204D1104B1A88104B9A42E6D0E2
:1038F0000020FEF7CFFAC0463139001060400020AA
:103900004C33000060410020534400005346000047
:1039100070B00410E8CF0410C4B004105438000094
:10392000D8380000494600009C3800005946000085
:1039300007B56046002800D100BE01880A0A02309F
:10394000DF2AFAD1C9B2820804D302884088000471
:10395000104300E00068024A5050039007BD000089
:10396000604000200FB403BC0CBCF0B50124E40798
:10397000634000E0F0B50C0DCF0F661E3605891BC5
:10398000640503D3C943404200D30131640D03D021
:10399000661CF60A07D0E41B00207F00791C89070B
:1039A0008912803C24031D0DDF0F6E1E36059B1B04
:1039B0006D0503D3DB43524200D301336D0D03D0B9
:1039C0006E1CF60A07D0ED1B00227F007B1C9B07B4
:1039D0009B12803D2D032F1B661B58D4A446202E1E
:1039E00046DA20371400BC401D00BD40F240334190
:1039F0002A4380185941CB0F05D0C943C043002248
:103A000064425041514162464D0D28D10D0D07D100
:103A100000281FD0241940414941013A0D0DF9D029
:103A2000640006D3013000D30131002C01D14008DD
:103A30004000013A0BD4941CE40A04D1120511444D
:103A4000DB071944F0BDD907204B194300E0D90723
:103A50000020F0BD0029DDD1002CDBD1F0BD01320A
:103A6000C6074008CD0728434908002EE1D0D9E712
:103A70003C2E29DA203E40371400BC4000D00124FF
:103A8000F24014431A00BB401C43D317ACE7AC46CA
:103A9000202F08DA20360400B4400D00B540F8406D
:103AA00039412843A5E73C2F0CDA203F403604007B
:103AB000B44000D00124F84004430800B1400C4356
:103AC000C117EAE710001900002494E70000F07F16
:103AD000F0B50C0D661E3605891BE60A6405640DFB
:103AE00002D0651CED0A04D0002001210905803CAC
:103AF0002403A4461C0D671E3F05DB1BE70A640573
:103B0000640D02D0651CED0A04D0002201231B05C0
:103B1000803C24037740644497B484B296B27443E3
:103B2000070C7E43150C6F4380B26843361802D3EE
:103B3000012000043F183004350C00197D418446F3
:103B400088B29AB250430C0C62431F0C7C438EB275
:103B50007E43921902D301263604A4191604170CC9
:103B60003618674101BC81B29AB25143040C6243DA
:103B70001B0C5C4380B25843121802D3012000048E
:103B800024181004130C401863412D185E410020C6
:103B9000474106BC88B293B258430C0C6343120CE5
:103BA000544389B251435B1802D3012109046418BC
:103BB00019041A0C091862416D185641002047413A
:103BC00018BCF902720D1143F0026A0D1043ED02A8
:103BD0000A0D03D16D1940414941013B124E9B1B17
:103BE0007600B3420ED26D0007D30130002671413A
:103BF0006646354301D1400840001B05C918E4075B
:103C00002144F0BD0BDA013306D1013004D101317A
:103C10004F0D01D04908F2E7E1070020F0BD013661
:103C200031050020EBE70000FF030000F0B51C0D9C
:103C3000671E3F05DB1BE70A6405640D02D0661CA6
:103C4000F60A04D0002201231B05803C2403D02562
:103C50002D060026F6432E661E096E66CE0FF61957
:103C6000B44649004F0D02D07E1CF60A03D0002056
:103C70000021403F3F033E1BB600B444013F7F0597
:103C8000C91B49082E6F013676089C02950D254305
:103C90007543ED137543AD1301356D10F603761BB7
:103CA0000CB4CC02450D2C43A2B2B3B25A43270C3C
:103CB0007B43350C6F43A4B26C431B1902D3012420
:103CC00024043F191C041D0CA4187D4124196D41C6
:103CD000009A91B2ACB26143170C7C432B0C5F434A
:103CE00092B25A43A41802D301221204BF1822042C
:103CF000230C52187B41019C6C431B19520ED901B5
:103D00000A434401A01A81B2B2B2514303145A4388
:103D1000360C734387B27743D617D21900277E41FA
:103D200036049B191704160C7F185E417316ED18A4
:103D3000F301002680337541A90F06D16400690A9A
:103D4000E8055B0A184309D22FE00422944480332B
:103D50007541A90AA8059B0A184326D34041494149
:103D60002404009A019B0D005543641B4343E41A4D
:103D700095B286B27543170C7E43030C5F4392B233
:103D80005A43B61802D301221204BF183204330C6E
:103D900052197B4152429C41002C02D40022013036
:103DA00051414008CA071043490802B06246D7078C
:103DB0009210084BD218084B9A4203D21205891868
:103DC000C919F0BD0020002A01DC3900F0BD013323
:103DD0001905F5E7FD030000FE070000002200B50D
:103DE000203200F010F8080000BD002200B500F0FD
:103DF0000CF8CA179A4200D100BDD8430121C90767
:103E0000414000BD00220B150AD410B5944600F0C5
:103E1000A7F81414013400DA0021CB17144C204702
:103E20000020002170476244343A0CD40C2A07DA8F
:103E300004009140904052422032D440214310BDB2
:103E4000D843D94310BD203207D40C469440524287
:103E500020321141D040204310BD0800C917203244
:103E600003D452422032104110BD1800190010BD79
:103E7000273E00104A00520D144BD21A13DDFF2AC0
:103E80001EDAD205CB0FDB071A43C300400F09032C
:103E9000490A084310435B0001D301D00130704749
:103EA0004308FBD2704702D0C80FC00770470A030F
:103EB00012130132F8D1420F072AF5D1012200E096
:103EC000FF22C80F00028018C00570478003000061
:103ED00000210A00002104E000210A00C11704E0CB
:103EE0000022002306E0C0460022CB17584059406C
:103EF000C01A994130B5184CA21A002903D101000B
:103F000010D00020203A4C1512D104D2013A0018EA
:103F100049414C0DFAD3114CA24204D21205891822
:103F2000DB07C91830BDD243520D00200021F5E750
:103F300003D4013A00184941FBD50B324405C00AAD
:103F40004D052843C90A640003D000246041614143
:103F5000E1E7E0D34408F8E732040000FE07000080
:103F60000A0DCC0F531E1B05C91A520503D3C943B2
:103F7000404200D30131520D03D0531CDB0A07D05D
:103F8000121B00206400611C89078912803A120309
:103F9000014BD21A70470000FF0300005143434316
:103FA000C9188C46110C83B24B4310B4040C614306
:103FB00092B280B2504362431C041B0C001910BC27
:103FC00059411304120CC01851416144704700005C
:103FD00007B548404140484001E0C04607B54200AF
:103FE000120E03D0FF2A03D1420218D8C00DC0051B
:103FF0004A00120E03D0FF2A03D14A020FD8C90D7E
:10400000C9050122414005D4414001D5814207BD87
:10401000884207BD0143491801D0C043001807BDBD
:1040200000B5FFF7DBFF01D0002000BD012000BD7F
:1040300000B5FFF7D3FF01D9002000BD012000BD6E
:1040400001231B064200D21804D84A00D21801D816
:10405000002070470120704770B513231E782A484E
:10406000FFF744F80500012E11D0012E09DDAB1E2B
:104070001B789B007F2B40DD24488022290000F024
:10408000B9F82348FFF72AF8224B186070BD1F4883
:104090005422290000F0AEF81F4B1A881F4B9A4299
:1040A0001CD1A7239B011A881D4B9A4216D11D4B88
:1040B0001A881D4B9A4211D11C4B1A8894239B01DC
:1040C0009A420BD11A4B1A881A4B9A4206D11A4BB4
:1040D0001A681A4B9A4201D1152307E01848FDF7D8
:1040E000D9FE184C094A99008C5001331F2BF8D97E
:1040F000144B064A1362D361B7E7134B134A1448B3
:104100004221FDF72FFEC0465346000064410020C7
:104110004C33000060410020EE290000C40F000075
:10412000C20D0000962B0000C0B50000182B000047
:10413000CC2A000010B50000FC2C000051ED876473
:10414000B4B404105541001018B10410FCCF041091
:104150004CB1041007B56046002800D100BE0188AC
:104160000A0A0230DF2AFAD1C9B2820804D30288CF
:1041700040880004104300E00068024A5050039059
:1041800007BD00006441002010B5002804D040188D
:10419000034B984200D810BD0248FDF77BFEC04695
:1041A00000000420A0B1041070B5050035F09AFE9F
:1041B00004002900FFF7E8FF200070BD70B50D0076
:1041C00036F096F904002900FFF7DEFF200070BDED
:1041D00010B535F091FE10BD01480421014B184780
:1041E00080120020FD300010014B1B6818470000B2
:1041F00080120020014B5B681847000080120020ED
:1042000010B5FFF7D1FF10BD10B5FFF7CDFF10BD02
:1042100010B5FFF7DDFF10BD10B5FFF7D9FF10BDDA
:1042200010B5FFF7D5FF10BD084B5B6A994209D85E
:10423000064A926A824207D2994201D0012002E0E6
:10424000002000E0002070470120FCE7004005400E
:1042500010B50300080011001B68984710BD00004E
:10426000F8B507000D001600437D002B02D0002496
:1042700000200CE003681100280098472DE03B7DEA
:1042800010E03B68154802219847601C0134B44295
:1042900014DA002CF3DD2B19013B1B780D3B5A423D
:1042A0005341DBB22A5D0A2AF0D1002BEED1A042A5
:1042B000E7DA3B68211A28189847E2E7B04203DAA8
:1042C0003B68311A28189847002E06DDAD19013DCC
:1042D0002B780D3B5A4253413B75F8BD34D0041046
:1042E00070B505000368002B16D00C4B1C6805E068
:1042F000290004C92000FFF7B3FF2469002C09D06E
:104300002368002BF9D0064B1B68002BF0D0A3428A
:10431000F3D1EDE700232B6070BDC046603E002066
:10432000683E002070B505000C000B68802B05D09E
:1043300023685A1C2260E418257170BD0800FFF73D
:10434000CFFFF5E710B5002B02DB0260436010BD24
:10435000024B034A03483F21FDF704FD50AA041015
:1043600038D004106CAA041010B582B00400FCF719
:10437000BFFF02000B006846FFF7E4FF009A019BB5
:1043800022606360200002B010BD000070B582B0F2
:10439000060014001D00FA22920000230698002156
:1043A000FFF7FCFD02000B0012196B41002B09DB2B
:1043B0006846FFF7C7FF009A019B326073603000C8
:1043C00002B070BD01225242004BF1E7FFFFFF7FB8
:1043D00030B585B004000D0002A8FFF7C5FF029AB2
:1043E000039B00952000FFF7D1FF200005B030BDF2
:1043F000F8B5CE46474680B507000E009146984670
:104400001BE0A368002B04D0310038009847002837
:1044100018DC2469002C06D00C4D2D68002DF0D03E
:10442000A542F6D1EDE748464146FFF7FDFE0028DC
:1044300006D101200021FCF77BFF054B1C68E9E752
:1044400001204042C0BCB946B046F8BD683E0020DD
:10445000603E002000B583B0FA2189006846FFF76E
:10446000B7FF009A019B024846F09EF903B000BDD9
:104470001023002010B5024846F046F910BDC04692
:1044800010230020F0B5CE46474680B583B0060025
:104490000D0090461C00FFF7DDFF81466B1C05D028
:1044A000002C08D0194F1A4B1C6807E030003CF074
:1044B000CBF90500F4E7174FF5E72469002C17D076
:1044C0002368002BF9D0144B1B68002B01D0A342AA
:1044D000F3D12A0031002000B8474346002BECD02E
:1044E0006B46D91D0A230B7001222000B847E4E770
:1044F0004B46002B07D16B1E9D41E8B203B0C0BCF8
:10450000B946B046F0BDFFF7B5FFF4E751420010E1
:10451000603E002061420010683E002010B503009C
:1045200008001100002B05D1044B1A685B68FFF7E7
:104530005FFF10BD01204042FBE7C04648CD04109C
:1045400010B5030008001400013B012B06D800231E
:1045500000222100FFF796FF200010BD01204042FD
:10456000FBE7012040427047012040427047012094
:10457000404270470300002002229A4240417047A7
:10458000094A01E010331A001368002B08D0834257
:10459000F8D1002907D1036913600023036102E009
:1045A000002900D010607047603E002010B5064B17
:1045B0001C6801E098472469002C03D06368002B35
:1045C000F8D1F8E710BDC046603E002070B5050088
:1045D0003CF03AF904000023012201002800FFF713
:1045E00051FFFFF7E3FF200070BD000070B5A2B0DF
:1045F00004000E00FFF72EFF0500002301930A4878
:104600003300220001A9FEF751FD040001A8FFF7C5
:1046100067FEFFF7CBFF002D02D1200022B070BD56
:10462000FFF728FFF9E7C046254300100FB400B597
:1046300083B004A901C90191FFF7D8FF03B008BCFA
:1046400004B0184710B500F0FFF8012010BD0000BD
:1046500010B582B00C00144BC3185A425341134A90
:104660005B009B5E8B4204D06B46DA1D1470002108
:1046700015E06B46DA1D0D23137000210029F3D1DC
:1046800083699B06FCD41378036001310132F5E79E
:1046900083699B06FCD41378036001310132002941
:1046A000F6D002B010BDC0460080FCBF78420020AA
:1046B00082B000226B46D91D06E08369DB06FCD47C
:1046C00003680B7001320131002AF6D06B46D879AD
:1046D00002B0704770B506000D00002405E0315DA2
:1046E000034B1868FFF7B4FF0134AC42F7DB70BD31
:1046F0007C420020F8B506000D00002705E07C1C78
:10470000F719FFF7D5FF38702700AF4204DA0E4AD9
:1047100010688269D206F2D50C4A1268002A0CD0C1
:10472000094A12685021916310003430526B1839D5
:1047300011408022520102431160002F01D0380045
:10474000F8BD033FFBE7C0467C420020F03D00205F
:1047500010B5064B1B68002B06D0054A12680021D5
:104760009163044A1068984710BDC046F03D002090
:104770007C420020F43D002070B505000E001C4B6B
:104780001A681C4BD31859424B4114331C000028A3
:104790001ED0194B1B68002B04D0174B1D60174B04
:1047A0001E6070BD16492000FBF7CCFE01212000E1
:1047B000FBF7B8FE0E4B1B6850229A631900343188
:1047C0005B6B183A1A4080235B010B431A60E4E7E5
:1047D000094B1B68002BE0D00023936300212000CD
:1047E000FBF7A0FE06492000FBF7D6FED5E7C04642
:1047F0007C4200200080FCBFF03D0020F43D002002
:104800005147001070B50D001C000D4B1860002AB8
:104810000BDA002C0EDA0A4B18682900FDF786F82F
:1048200008480121FFF7ACFE70BD02211000FBF724
:104830007DFDEEE702212000FBF778FDEBE7C046A7
:104840007C4200209012002010B5064B1B78064BCE
:104850001B78E1210123002249020448FFF7D2FF1F
:1048600010BDC0460CE2051008E2051000400340F0
:1048700010B5054C200000F019FA2000034A044945
:104880002AF032FF10BDC046A43A0020EC110020EF
:10489000CD4C0010F0B5DE4657464E464546012247
:1048A000E0B5DF4D00242800DE4B83B01A70DE4BEC
:1048B0001C3098461B686C609E68DC4BAC609B4665
:1048C0002B60EC602C616C61AC6101F019F9D84B84
:1048D000D84F9A462B6001235B4299466B62434650
:1048E0001B682E6238005E685B461C303B607C6053
:1048F000BC60FC603C617C61BC6101F001F9534625
:104900003B604B467B6243463E62CB4E5A4630008C
:104910001B681C30DB68326001937460B460F46023
:1049200034617461B46101F0EBF8019B524633626B
:104930004B467362C14B32609946180015F02CF853
:104940004B4678221C67043B9C5208329C50043230
:104950009C5004329C50DC67B94C29002200484628
:1049600014321C605A6014F0ABFFB64D280015F0ED
:1049700013F82B0000227C21083B5A5204315A5074
:1049800004315A5004315A5004315A50AE4928006B
:1049900019601431996039002A675A6014F090FF49
:1049A000AA4D280014F0F8FF002278212B1F5A523C
:1049B00008315A5004315A5004315A502A67AA67B4
:1049C00022003100143228001C602A6014F078FFA5
:1049D0009F4D280014F0E0FF002278212B1F5A522F
:1049E00008315A5004315A5004315A501C60310079
:1049F000143428002A67AA672C6014F061FF802213
:104A00009449954B92019967944B954D1869596754
:104A100002431A614346280000241B681C309E682C
:104A2000904B6C609B462B60AC60EC602C616C61C1
:104A3000AC6101F065F88C4B8C4F9A462B600123DA
:104A40005B4299466B6243461B682E6238005E6883
:104A50005B461C303B607C60BC60FC603C617C6100
:104A6000BC6101F04DF853463B604B467B624346C8
:104A70001B683E627E4EDB68300098465B461C3009
:104A800033607460B460F46034617461B46101F0E7
:104A900037F853463360434633624B467362754B77
:104AA0009846180014F078FF43467C221C675C6728
:104AB000043B9C5404329C5004329C5004329C5061
:104AC00004329C506C4C29002200404614321C6079
:104AD0005A6014F04BFF694D280014F05DFF2B0065
:104AE00000228021083B5A5404315A5004315A5054
:104AF00004315A5004315A50614928001960143168
:104B0000996039002A676A675A6014F02FFF5D4D7B
:104B1000280014F041FF00227C212B1F5A5404313D
:104B20005A5004315A5004315A5004315A502A67AD
:104B30006A6722003100143228001C602A6014F0D9
:104B400015FF514D280014F027FF00227C212B1F58
:104B50005A5404315A5004315A5004315A500431D5
:104B60005A501C603100143428002A676A672C6090
:104B700014F0FCFE8022454B454992019967454B54
:104B80001869596702431A61434A13680133136075
:104B900003B0F0BCBB46B246A946A046F0BD2D4BC3
:104BA0003E4A48465A6014F033FF2AF0EDFF3C4B72
:104BB0003C4A28005A6014F02BFF2AF0E5FF354BE1
:104BC000384A28005A6014F023FF2AF0DDFF2F4BEB
:104BD000344A28009A6014F01BFF2AF0D5FF2C4BB2
:104BE000304A40465A6014F013FF2AF0CDFF2E4B96
:104BF0002A4A28005A6014F00BFF2AF0C5FF174B11
:104C0000264A28005A6014F003FF2AF0BDFF124B19
:104C1000224A28009A6014F0FBFE2AF0B5FFC04635
:104C2000E8330020A8120020D8190020FC0305104A
:104C3000C0F9041098330020C0330020D83700207A
:104C400040030510343600204CFB0410C036002011
:104C50004C370020D43700202C360020BC360020F2
:104C6000603400203C04051000FA041010340020C9
:104C700038340020183A00207003051068380020EE
:104C80007CFB0410F83800208839002060380020B0
:104C9000143A0020F4380020F8350020A0FA04105F
:104CA00084390020B0FA041048370020064A10B5B5
:104CB00013680400591C1160002B01D0200010BDA6
:104CC000FFF7E8FDFAE7C046F8350020104A10B5B6
:104CD00013680400591E1160022B01D0200010BD82
:104CE0000C481FF0ABF90C481FF0A8F90B481FF057
:104CF000A5F90B481FF060FC0A481FF05DFC0A484C
:104D00001FF05AFCEAE72BF0C9F82BF001F9E5E7B0
:104D1000F8350020D4370020BC360020483700206A
:104D2000143A0020F4380020843900207047C0462F
:104D300010B50400FFF76CFA200010BD044A0B68A0
:104D400012680360934202D01A6801321A607047F9
:104D5000783500200160704710B5064C20680028A7
:104D600000D010BD2000002203492CF0C9FA2068B1
:104D7000F7E7C0468035002080D004100048704717
:104D800080D00410416870B50500002916D08368F2
:104D9000002B10D00024354EA2005058002805D01A
:104DA00043685A1E4260012B36D0AB680134A342DF
:104DB000F2D8002902D00800FFF72EFAE96800298E
:104DC00016D0AB68002B10D00024284EA2005058FB
:104DD000002805D043685A1E4260012B24D0AB68DE
:104DE0000134A342F2D8002902D00800FFF714FAD8
:104DF0002B690024002B0DD01859002802D0FFF792
:104E00000BFA2B690434182CF6D1002B02D01800B1
:104E1000FFF702FA280070BD03685B68B3420BD14C
:104E2000FFF7F6F96968C0E703685B68B34206D12B
:104E3000FFF7EEF9E968D2E798476968B5E7984760
:104E4000E968CCE72BF02AF82BF062F86968ACE748
:104E50002BF024F82BF05CF8E968C0E7013102D1AF
:104E60002AF09EFFFAE72AF08FFEC046314D00106F
:104E70000A4B70B51B68056804009D4204D02B687E
:104E80005A1E2A60012B01D0200070BD2800FFF7B8
:104E900079FF2800FFF7BCF9F6E7C0467835002017
:104EA0000E4A0B68126870B504000D00934202D0E0
:104EB0001968013119602668B24204D03268511E67
:104EC0003160012A02D02000236070BD3000FFF75E
:104ED00059FF3000FFF79CF92B68F4E77835002084
:104EE000F0B54E464546DE465746E0B5050016008D
:104EF00083B0002A00D1EEE00C68002C04D1B94B3D
:104F00001C6801341C600C606B68671E9A46AB68B5
:104F1000013BBB4267D2E31C9B46B34B9B4500D889
:104F2000E4E001204042FFF76FF901238146A868C1
:104F30005B429846002813D06B6822009C46810093
:104F40000C0000236146844648469146CA58C25028
:104F50000433A342FAD14C4681466046584507D2F5
:104F6000221A03328000002192004844FFF73CF9E6
:104F7000EB6840460193FFF747F98046A868002890
:104F800013D0EB6881009C4602004046884600230F
:104F90006146A44644469046CA58C2500433A342D0
:104FA000FAD14346644680461800834507D9221A41
:104FB00003328000002192004044FFF715F95B4660
:104FC000AB604B466B604346EB605346002B02D010
:104FD0005046FFF721F9019B002B02D00198FFF703
:104FE0001BF96B689A46BF007368574438680133F1
:104FF000B9467360002849D07C490F68002F40D023
:10500000784B8446A84618000DE0002A03D10268B8
:10501000013202602A60944200D17BE08F6808313F
:10502000002F00D199E03B68002B03D103680133C6
:1050300003603B604D682A689C42E6D113006046DD
:105040002A004546002B04D166490B6801330B60EA
:105050001360013B9C0054442368002B11D01100C5
:1050600030000EF00FFC43680700013343602068F6
:1050700043685A1E4260012B00D178E04B462760FE
:10508000186843685A1E4260012B3BD04B46AA6801
:105090001E60002A1FD000239946554B00249846D5
:1050A000E96805E04A461A60AA680134A24212D9AA
:1050B000A6008B1918680028F7D04268571E476071
:1050C000012AEFD103685B6843450BD1FFF7A0F8D5
:1050D000E9688B19E6E703B0F0BCBB46B246A946C7
:1050E000A046F0BD9847E9688B19DBE75B469B005B
:1050F00018009846FFF788F88146A868002800D075
:105100001AE72BE703683A4A5B6893422DD1FFF711
:105110007FF8BBE73B6860464546002B04D1314A27
:105120001368013313603B60013B9C0054442368C7
:10513000002BA6D03900300004F042FF43688046BF
:1051400001334360206843685A1E4260012B16D029
:10515000434623604B46186893E7604643684546DC
:105160005A1E4260012B91D1CCE798478EE7036825
:105170001F4A5B6893420AD1FFF74AF87EE703684B
:105180001B4A5B68934204D1FFF742F8E0E7984777
:1051900074E79847DCE72AF081FE4846FFF73CF8C1
:1051A0002BF0EAFA2AF07AFE2AF0B2FE6EE72AF035
:1051B00075FE2AF0ADFE96E72AF070FE2AF0A8FEF2
:1051C0005CE72AF06BFE2AF0A3FEC1E72AF0A0FEFE
:1051D0002AF0DAFC0131FBD12AF0E2FDFAE7F9E727
:1051E000F8E7C0467C350020FEFFFF1F84D0041086
:1051F000314D0010F8B53C4E070030000C00150092
:105200002BF0F2FA002833D13848FB6806689C4638
:10521000002E5FD036490CE0002B03D10B68013320
:105220000B603B60013B9D4226D086680830002E13
:105230003DD03268002A03D10A6801320A60326028
:105240004768013A3B689542E6D1002B3AD0AD0061
:1052500065442A68013B002A1DD0002C07D0236832
:10526000244A5B682000934232D1FEF7D1FFF8BD9B
:1052700030002BF0D5FAC7E73268002A04D11C4B66
:105280001A6801321A6032602B00551EAD00654469
:105290002A68002AE1D16268501C60602C60581CAA
:1052A000E5D00232626062469B009C50DFE7AD00B1
:1052B000290061440B68002BCFD163680133636020
:1052C0000C60D4E70A4A1368013313603B60BEE701
:1052D0009847CCE7AD0065442B68002BBDD16368CF
:1052E000013363602C60C2E7AC27002084D0041037
:1052F0007C350020314D001003000068002804D1E7
:10530000034A106801301060186001387047C046C9
:105310007C350020F0B5DE464E46454657463023E4
:10532000E0B50600FE4C836091B00160C022002110
:105330002000FEF759FF7460FA4CC02200212000C3
:10534000FEF752FFF460F84C142200212000FEF713
:105350004BFF043CF54D34612560FFF70FFD022241
:1053600001002800FEF746FFF14C01230022002136
:10537000200005F0D5FF22003000EE49FFF7B0FD18
:10538000ED4C012120002CF05BF822003000EB49AD
:10539000FFF7A6FDEA49EB4B01220B600023080052
:1053A0008B60CB600B744B618B61CB610B628B8428
:1053B00000914A600021E44C6433C154E34BA06087
:1053C000002120006260236001F0B8F8E04B220069
:1053D000190030000993FFF783FD0123DD4A3000F7
:1053E0005360DD4BDD491360FFF77AFD0123DC4A92
:1053F00030005360DB4BDC491360FFF771FD012384
:10540000DA4C6360DA4B2360FFF7A6FCA060220051
:105410003000D849FFF764FDD74B01229A46514628
:105420005A60D64B50460B6000238B60CB60002146
:10543000D34C038243618361C3610362436283622D
:10544000C362036343634333C154CE4B81746260D0
:10545000A060002200212000236000F0D7FBCA4B8F
:105460002200190030000593FFF73AFDC74B0122D7
:10547000994649465A60C64B48460B6000238B60EC
:10548000CB600021C34C038243618361C36103622B
:1054900043628362C362036343634333C154BE4BBD
:1054A00081746260A060002200212000236000F06F
:1054B0005DFBBA4B2200190030000893FFF710FD86
:1054C0000123B74A30005360B64BB7491360FFF76A
:1054D00007FD0123B54A30005360B54BB549136051
:1054E000FFF7FEFC0123B44D80226B60B34B00201C
:1054F0002B600023AB60EB602B616B61AB61EB61F8
:105500002B626B62AB62EB622B636B63AB63EB632F
:105510002B646B64AB64EB642B656B65AB65EB650F
:105520002B666B66AB66EB662B676B67AB67AB5046
:105530000432AB500432AB500432AB500432AB50A7
:105540000432AB500432AB500432AB500432AB5097
:105550000432AB500432AB500432AB500432AB5087
:105560000432AB502A000021B83210605160C022D2
:10557000934CAB500432AB5429002000C33AEB6784
:1055800015F052FE8F4B2200190030000293FFF7F6
:10559000A7FC01238C4A300053608C4B8C4913606C
:1055A000FFF79EFC01238B4A300053608A4B8B49E6
:1055B0001360FFF795FC8A4C012120000AF006FBDE
:1055C000220030008749FFF78BFC874C0121200027
:1055D00005F07AFE220030008449FFF781FC844CFC
:1055E000012120002BF044FF220030008149FFF709
:1055F00077FC814B01229B4659465A607F4B5C46A3
:105600000B60002300208B60CB600B744B618B61BF
:10561000CB610021206261629221584649006354A7
:10562000A362774C774BA06000212000626023606A
:1056300001F00AF8744B2200190030000693FFF7BE
:105640004FFC0123714A30005360714B7149136064
:10565000FFF746FC0123704A300053606F4B7049DE
:105660001360FFF73DFC01236E4C63606E4B2360BB
:10567000FFF772FBA060220030006C49FFF730FC9E
:105680006B4B0122984641465A606A4B40460B607C
:1056900000238B60CB600B744B618B61CB610B6221
:1056A0004B628B62CB620B634B638B63CB636C216E
:1056B000614C4354614B6260A060002200212000D5
:1056C000236000F0ABFB5E4B220019003000039317
:1056D000FFF706FC5B4F5C4B6C213B600023012213
:1056E0005A4C7B54BB60FB603B747B61BB61FB61CC
:1056F0003B627B62BB62FB623B637B63BB63FB63BE
:10570000534B7A6062600021002220002360A76072
:1057100000F034FB4F4B2200190030009CE0C046E3
:10572000B8320020C8310020B4310020A02A002067
:10573000AC2A00207035002088320020D8350020A7
:10574000D0280020C4D80410DC270020E0EA041090
:10575000A83500207833002030010510E8350020FE
:10576000883300206C010510F0350020A0320020A5
:10577000C4EA0410983500203829002094D8041079
:105780008028002038EB0410883500207C29002078
:1057900084D804108C28002004EB04108C350020E1
:1057A0002428002088EB0410B8350020342800207D
:1057B000A0EB0410C0350020782400209C010510C7
:1057C00044280020B8340020F4270020B8EB04104F
:1057D000B0350020042800209C020510143600205B
:1057E000BC270020A0350020CC2C002074350020E0
:1057F00094320020DC35002050230020D4D804103F
:10580000E827002034F80410AC3500208033002055
:105810008C0A0510EC35002090330020C80A0510D2
:10582000F4350020AC32002018F804109C3500201C
:10583000C0290020B4D80410982800208CF8041047
:1058400090350020302A0020A4D80410A42800207D
:1058500058F80410943500200493FFF741FB01230E
:10586000894A30005360894B89491360FFF738FB40
:105870000123884A30005360874B88491360FFF743
:105880002FFB0123864C80226360864B002023601F
:105890000023A360E36023616361A361E36123628A
:1058A0006362A362E36223636363A363E3632364CA
:1058B0006364A364E36423656365A365E3652366AA
:1058C0006366A366E36623676367A367A350043236
:1058D000A3500432A3500432A3500432A350043224
:1058E000A3500432A3500432A3500432A350043214
:1058F000A3500432A3500432A3500432A350043204
:10590000A35022000021B83210605160C022A35081
:105910000432A354E367644B21001800C33A019397
:1059200021F030F8614B30001900019A0793FFF71E
:10593000D7FA01235E4A300053605E4B5E49136024
:10594000FFF7CEFA01235D4A300053605C4B5D499E
:105950001360FFF7C5FA5C4B01211800019313F0A7
:10596000BFFC30005949019AFFF7BAFA0123584A9F
:1059700030005360574B58491360FFF7B1FA0123C9
:10598000564A30005360564B56491360FFF7A8FA49
:105990000123554A30005360544B55491360FFF7BB
:1059A0009FFA0123534A30005360534B534913600D
:1059B000FFF796FA52460B924A460C925A460D92BF
:1059C0004246009B30000AA90A930E920F9701F0FD
:1059D0006FFDF26809980192FFF78EFC009B019A17
:1059E00080008350F36805980093FFF785FC5246CA
:1059F000009B8000C250F36808989A46FFF77CFC31
:105A00004A4653468000C250F36802989946FFF711
:105A100073FC4B468000C5500698F568FFF76CFC98
:105A20005B46800043510398F568FFF765FC4346E9
:105A3000800043510498F568FFF75EFC80004751F1
:105A40000798F568FFF758FC80004451300011B00A
:105A5000F0BCBB46B246A946A046F0BD06000D000C
:105A600001350FD130002AF09BF9060020000D000F
:105A7000FFF75CF9F4E7F8E7F7E7F6E7F5E7F4E7AF
:105A8000F3E7F2E72AF080F82C280020DCF8041075
:105A9000BC3500203C280020F4F80410C435002058
:105AA00040250020F80A051058280020BC340020AA
:105AB000FC2700200CF90410B43500200C2800202D
:105AC000F80B051018360020CC270020A435002044
:105AD0001428002014DB0410D43500201C280020DA
